{
  "_format": "hh-sol-artifact-1",
  "contractName": "TokenBundler",
  "sourceName": "contracts/TokenBundler.sol",
  "abi": [
    {
      "inputs": [
        {
          "internalType": "string",
          "name": "_metaUri",
          "type": "string"
        },
        {
          "internalType": "uint256",
          "name": "_bundleMaxSize",
          "type": "uint256"
        }
      ],
      "stateMutability": "nonpayable",
      "type": "constructor"
    },
    {
      "anonymous": false,
      "inputs": [
        {
          "indexed": true,
          "internalType": "address",
          "name": "account",
          "type": "address"
        },
        {
          "indexed": true,
          "internalType": "address",
          "name": "operator",
          "type": "address"
        },
        {
          "indexed": false,
          "internalType": "bool",
          "name": "approved",
          "type": "bool"
        }
      ],
      "name": "ApprovalForAll",
      "type": "event"
    },
    {
      "anonymous": false,
      "inputs": [
        {
          "indexed": true,
          "internalType": "uint256",
          "name": "id",
          "type": "uint256"
        },
        {
          "indexed": true,
          "internalType": "address",
          "name": "creator",
          "type": "address"
        }
      ],
      "name": "BundleCreated",
      "type": "event"
    },
    {
      "anonymous": false,
      "inputs": [
        {
          "indexed": true,
          "internalType": "uint256",
          "name": "id",
          "type": "uint256"
        }
      ],
      "name": "BundleUnwrapped",
      "type": "event"
    },
    {
      "anonymous": false,
      "inputs": [
        {
          "indexed": true,
          "internalType": "address",
          "name": "operator",
          "type": "address"
        },
        {
          "indexed": true,
          "internalType": "address",
          "name": "from",
          "type": "address"
        },
        {
          "indexed": true,
          "internalType": "address",
          "name": "to",
          "type": "address"
        },
        {
          "indexed": false,
          "internalType": "uint256[]",
          "name": "ids",
          "type": "uint256[]"
        },
        {
          "indexed": false,
          "internalType": "uint256[]",
          "name": "values",
          "type": "uint256[]"
        }
      ],
      "name": "TransferBatch",
      "type": "event"
    },
    {
      "anonymous": false,
      "inputs": [
        {
          "indexed": true,
          "internalType": "address",
          "name": "operator",
          "type": "address"
        },
        {
          "indexed": true,
          "internalType": "address",
          "name": "from",
          "type": "address"
        },
        {
          "indexed": true,
          "internalType": "address",
          "name": "to",
          "type": "address"
        },
        {
          "indexed": false,
          "internalType": "uint256",
          "name": "id",
          "type": "uint256"
        },
        {
          "indexed": false,
          "internalType": "uint256",
          "name": "value",
          "type": "uint256"
        }
      ],
      "name": "TransferSingle",
      "type": "event"
    },
    {
      "anonymous": false,
      "inputs": [
        {
          "indexed": false,
          "internalType": "string",
          "name": "value",
          "type": "string"
        },
        {
          "indexed": true,
          "internalType": "uint256",
          "name": "id",
          "type": "uint256"
        }
      ],
      "name": "URI",
      "type": "event"
    },
    {
      "inputs": [
        {
          "internalType": "address",
          "name": "account",
          "type": "address"
        },
        {
          "internalType": "uint256",
          "name": "id",
          "type": "uint256"
        }
      ],
      "name": "balanceOf",
      "outputs": [
        {
          "internalType": "uint256",
          "name": "",
          "type": "uint256"
        }
      ],
      "stateMutability": "view",
      "type": "function"
    },
    {
      "inputs": [
        {
          "internalType": "address[]",
          "name": "accounts",
          "type": "address[]"
        },
        {
          "internalType": "uint256[]",
          "name": "ids",
          "type": "uint256[]"
        }
      ],
      "name": "balanceOfBatch",
      "outputs": [
        {
          "internalType": "uint256[]",
          "name": "",
          "type": "uint256[]"
        }
      ],
      "stateMutability": "view",
      "type": "function"
    },
    {
      "inputs": [
        {
          "internalType": "uint256",
          "name": "_bundleId",
          "type": "uint256"
        }
      ],
      "name": "bundle",
      "outputs": [
        {
          "internalType": "uint256[]",
          "name": "",
          "type": "uint256[]"
        }
      ],
      "stateMutability": "view",
      "type": "function"
    },
    {
      "inputs": [
        {
          "components": [
            {
              "internalType": "address",
              "name": "assetAddress",
              "type": "address"
            },
            {
              "internalType": "enum MultiToken.Category",
              "name": "category",
              "type": "uint8"
            },
            {
              "internalType": "uint256",
              "name": "amount",
              "type": "uint256"
            },
            {
              "internalType": "uint256",
              "name": "id",
              "type": "uint256"
            }
          ],
          "internalType": "struct MultiToken.Asset[]",
          "name": "_assets",
          "type": "tuple[]"
        }
      ],
      "name": "create",
      "outputs": [
        {
          "internalType": "uint256",
          "name": "",
          "type": "uint256"
        }
      ],
      "stateMutability": "nonpayable",
      "type": "function"
    },
    {
      "inputs": [
        {
          "internalType": "address",
          "name": "account",
          "type": "address"
        },
        {
          "internalType": "address",
          "name": "operator",
          "type": "address"
        }
      ],
      "name": "isApprovedForAll",
      "outputs": [
        {
          "internalType": "bool",
          "name": "",
          "type": "bool"
        }
      ],
      "stateMutability": "view",
      "type": "function"
    },
    {
      "inputs": [],
      "name": "maxSize",
      "outputs": [
        {
          "internalType": "uint256",
          "name": "",
          "type": "uint256"
        }
      ],
      "stateMutability": "view",
      "type": "function"
    },
    {
      "inputs": [
        {
          "internalType": "address",
          "name": "",
          "type": "address"
        },
        {
          "internalType": "address",
          "name": "",
          "type": "address"
        },
        {
          "internalType": "uint256[]",
          "name": "",
          "type": "uint256[]"
        },
        {
          "internalType": "uint256[]",
          "name": "",
          "type": "uint256[]"
        },
        {
          "internalType": "bytes",
          "name": "",
          "type": "bytes"
        }
      ],
      "name": "onERC1155BatchReceived",
      "outputs": [
        {
          "internalType": "bytes4",
          "name": "",
          "type": "bytes4"
        }
      ],
      "stateMutability": "pure",
      "type": "function"
    },
    {
      "inputs": [
        {
          "internalType": "address",
          "name": "",
          "type": "address"
        },
        {
          "internalType": "address",
          "name": "",
          "type": "address"
        },
        {
          "internalType": "uint256",
          "name": "",
          "type": "uint256"
        },
        {
          "internalType": "uint256",
          "name": "",
          "type": "uint256"
        },
        {
          "internalType": "bytes",
          "name": "",
          "type": "bytes"
        }
      ],
      "name": "onERC1155Received",
      "outputs": [
        {
          "internalType": "bytes4",
          "name": "",
          "type": "bytes4"
        }
      ],
      "stateMutability": "pure",
      "type": "function"
    },
    {
      "inputs": [
        {
          "internalType": "address",
          "name": "from",
          "type": "address"
        },
        {
          "internalType": "address",
          "name": "to",
          "type": "address"
        },
        {
          "internalType": "uint256[]",
          "name": "ids",
          "type": "uint256[]"
        },
        {
          "internalType": "uint256[]",
          "name": "amounts",
          "type": "uint256[]"
        },
        {
          "internalType": "bytes",
          "name": "data",
          "type": "bytes"
        }
      ],
      "name": "safeBatchTransferFrom",
      "outputs": [],
      "stateMutability": "nonpayable",
      "type": "function"
    },
    {
      "inputs": [
        {
          "internalType": "address",
          "name": "from",
          "type": "address"
        },
        {
          "internalType": "address",
          "name": "to",
          "type": "address"
        },
        {
          "internalType": "uint256",
          "name": "id",
          "type": "uint256"
        },
        {
          "internalType": "uint256",
          "name": "amount",
          "type": "uint256"
        },
        {
          "internalType": "bytes",
          "name": "data",
          "type": "bytes"
        }
      ],
      "name": "safeTransferFrom",
      "outputs": [],
      "stateMutability": "nonpayable",
      "type": "function"
    },
    {
      "inputs": [
        {
          "internalType": "address",
          "name": "operator",
          "type": "address"
        },
        {
          "internalType": "bool",
          "name": "approved",
          "type": "bool"
        }
      ],
      "name": "setApprovalForAll",
      "outputs": [],
      "stateMutability": "nonpayable",
      "type": "function"
    },
    {
      "inputs": [
        {
          "internalType": "bytes4",
          "name": "interfaceId",
          "type": "bytes4"
        }
      ],
      "name": "supportsInterface",
      "outputs": [
        {
          "internalType": "bool",
          "name": "",
          "type": "bool"
        }
      ],
      "stateMutability": "view",
      "type": "function"
    },
    {
      "inputs": [
        {
          "internalType": "uint256",
          "name": "_tokenId",
          "type": "uint256"
        }
      ],
      "name": "token",
      "outputs": [
        {
          "components": [
            {
              "internalType": "address",
              "name": "assetAddress",
              "type": "address"
            },
            {
              "internalType": "enum MultiToken.Category",
              "name": "category",
              "type": "uint8"
            },
            {
              "internalType": "uint256",
              "name": "amount",
              "type": "uint256"
            },
            {
              "internalType": "uint256",
              "name": "id",
              "type": "uint256"
            }
          ],
          "internalType": "struct MultiToken.Asset",
          "name": "",
          "type": "tuple"
        }
      ],
      "stateMutability": "view",
      "type": "function"
    },
    {
      "inputs": [
        {
          "internalType": "uint256",
          "name": "_bundleId",
          "type": "uint256"
        }
      ],
      "name": "unwrap",
      "outputs": [],
      "stateMutability": "nonpayable",
      "type": "function"
    },
    {
      "inputs": [
        {
          "internalType": "uint256",
          "name": "",
          "type": "uint256"
        }
      ],
      "name": "uri",
      "outputs": [
        {
          "internalType": "string",
          "name": "",
          "type": "string"
        }
      ],
      "stateMutability": "view",
      "type": "function"
    }
  ],
  "bytecode": "0x60806040523480156200001157600080fd5b50604051620048f2380380620048f28339818101604052810190620000379190620001ae565b8162000049816200005960201b60201c565b508060058190555050506200039c565b80600290805190602001906200007192919062000075565b5050565b8280546200008390620002a7565b90600052602060002090601f016020900481019282620000a75760008555620000f3565b82601f10620000c257805160ff1916838001178555620000f3565b82800160010185558215620000f3579182015b82811115620000f2578251825591602001919060010190620000d5565b5b50905062000102919062000106565b5090565b5b808211156200012157600081600090555060010162000107565b5090565b60006200013c620001368462000231565b62000208565b9050828152602081018484840111156200015557600080fd5b6200016284828562000271565b509392505050565b600082601f8301126200017c57600080fd5b81516200018e84826020860162000125565b91505092915050565b600081519050620001a88162000382565b92915050565b60008060408385031215620001c257600080fd5b600083015167ffffffffffffffff811115620001dd57600080fd5b620001eb858286016200016a565b9250506020620001fe8582860162000197565b9150509250929050565b60006200021462000227565b9050620002228282620002dd565b919050565b6000604051905090565b600067ffffffffffffffff8211156200024f576200024e62000342565b5b6200025a8262000371565b9050602081019050919050565b6000819050919050565b60005b838110156200029157808201518184015260208101905062000274565b83811115620002a1576000848401525b50505050565b60006002820490506001821680620002c057607f821691505b60208210811415620002d757620002d662000313565b5b50919050565b620002e88262000371565b810181811067ffffffffffffffff821117156200030a576200030962000342565b5b80604052505050565b7f4e487b7100000000000000000000000000000000000000000000000000000000600052602260045260246000fd5b7f4e487b7100000000000000000000000000000000000000000000000000000000600052604160045260246000fd5b6000601f19601f8301169050919050565b6200038d8162000267565b81146200039957600080fd5b50565b61454680620003ac6000396000f3fe608060405234801561001057600080fd5b50600436106100f45760003560e01c80634e1273f411610097578063de0e9a3e11610066578063de0e9a3e146102cf578063e985e9c5146102eb578063f23a6e611461031b578063f242432a1461034b576100f4565b80634e1273f414610223578063a22cb46514610253578063bc197c811461026f578063dafc45011461029f576100f4565b80630e89341c116100d35780630e89341c1461018957806313578f26146101b95780632565b159146101e95780632eb2c2d614610207576100f4565b8062fdd58e146100f957806301ffc9a714610129578063044215c614610159575b600080fd5b610113600480360381019061010e919061308d565b610367565b6040516101209190613a9c565b60405180910390f35b610143600480360381019061013e919061319f565b610430565b6040516101509190613809565b60405180910390f35b610173600480360381019061016e91906131f1565b610512565b6040516101809190613a81565b60405180910390f35b6101a3600480360381019061019e91906131f1565b610630565b6040516101b0919061383f565b60405180910390f35b6101d360048036038101906101ce91906131f1565b6106c4565b6040516101e091906137b0565b60405180910390f35b6101f161072f565b6040516101fe9190613a9c565b60405180910390f35b610221600480360381019061021c9190612e71565b610739565b005b61023d600480360381019061023891906130c9565b6107da565b60405161024a91906137b0565b60405180910390f35b61026d60048036038101906102689190613051565b61098b565b005b61028960048036038101906102849190612da5565b6109a1565b6040516102969190613824565b60405180910390f35b6102b960048036038101906102b49190613135565b6109b9565b6040516102c69190613a9c565b60405180910390f35b6102e960048036038101906102e491906131f1565b610b30565b005b61030560048036038101906103009190612d69565b610e60565b6040516103129190613809565b60405180910390f35b61033560048036038101906103309190612f30565b610ef4565b6040516103429190613824565b60405180910390f35b61036560048036038101906103609190612fc2565b610f0a565b005b60008073ffffffffffffffffffffffffffffffffffffffff168373ffffffffffffffffffffffffffffffffffffffff1614156103d8576040517f08c379a00000000000000000000000000000000000000000000000000000000081526004016103cf906138c1565b60405180910390fd5b60008083815260200190815260200160002060008473ffffffffffffffffffffffffffffffffffffffff1673ffffffffffffffffffffffffffffffffffffffff16815260200190815260200160002054905092915050565b60007f3682f486000000000000000000000000000000000000000000000000000000007bffffffffffffffffffffffffffffffffffffffffffffffffffffffff1916827bffffffffffffffffffffffffffffffffffffffffffffffffffffffff191614806104fb57507f4e2312e0000000000000000000000000000000000000000000000000000000007bffffffffffffffffffffffffffffffffffffffffffffffffffffffff1916827bffffffffffffffffffffffffffffffffffffffffffffffffffffffff1916145b8061050b575061050a82610fab565b5b9050919050565b61051a6128f0565b600760008381526020019081526020016000206040518060800160405290816000820160009054906101000a900473ffffffffffffffffffffffffffffffffffffffff1673ffffffffffffffffffffffffffffffffffffffff1673ffffffffffffffffffffffffffffffffffffffff1681526020016000820160149054906101000a900460ff1660028111156105d9577f4e487b7100000000000000000000000000000000000000000000000000000000600052602160045260246000fd5b6002811115610611577f4e487b7100000000000000000000000000000000000000000000000000000000600052602160045260246000fd5b8152602001600182015481526020016002820154815250509050919050565b60606002805461063f90613d5c565b80601f016020809104026020016040519081016040528092919081815260200182805461066b90613d5c565b80156106b85780601f1061068d576101008083540402835291602001916106b8565b820191906000526020600020905b81548152906001019060200180831161069b57829003601f168201915b50505050509050919050565b60606006600083815260200190815260200160002080548060200260200160405190810160405280929190818152602001828054801561072357602002820191906000526020600020905b81548152602001906001019080831161070f575b50505050509050919050565b6000600554905090565b61074161108d565b73ffffffffffffffffffffffffffffffffffffffff168573ffffffffffffffffffffffffffffffffffffffff16148061078757506107868561078161108d565b610e60565b5b6107c6576040517f08c379a00000000000000000000000000000000000000000000000000000000081526004016107bd90613981565b60405180910390fd5b6107d38585858585611095565b5050505050565b60608151835114610820576040517f08c379a000000000000000000000000000000000000000000000000000000000815260040161081790613a21565b60405180910390fd5b6000835167ffffffffffffffff811115610863577f4e487b7100000000000000000000000000000000000000000000000000000000600052604160045260246000fd5b6040519080825280602002602001820160405280156108915781602001602082028036833780820191505090505b50905060005b84518110156109805761092a8582815181106108dc577f4e487b7100000000000000000000000000000000000000000000000000000000600052603260045260246000fd5b602002602001015185838151811061091d577f4e487b7100000000000000000000000000000000000000000000000000000000600052603260045260246000fd5b6020026020010151610367565b828281518110610963577f4e487b7100000000000000000000000000000000000000000000000000000000600052603260045260246000fd5b6020026020010181815250508061097990613dbf565b9050610897565b508091505092915050565b61099d61099661108d565b83836113f5565b5050565b600063bc197c8160e01b905098975050505050505050565b6000808251116109fe576040517f08c379a00000000000000000000000000000000000000000000000000000000081526004016109f5906138e1565b60405180910390fd5b60055482511115610a44576040517f08c379a0000000000000000000000000000000000000000000000000000000008152600401610a3b906138a1565b60405180910390fd5b6000600360008154610a5590613dbf565b9190508190559050610a793382600160405180602001604052806000815250611562565b3373ffffffffffffffffffffffffffffffffffffffff16817f70840306de89dda231cb16a2feaa0e2a8dbff922cd2500962c55607b4f339b7660405160405180910390a360005b8351811015610b2657610b1382858381518110610b06577f4e487b7100000000000000000000000000000000000000000000000000000000600052603260045260246000fd5b60200260200101516116f8565b8080610b1e90613dbf565b915050610ac0565b5080915050919050565b6001610b3c3383610367565b14610b7c576040517f08c379a0000000000000000000000000000000000000000000000000000000008152600401610b7390613941565b60405180910390fd5b600060066000838152602001908152602001600020805480602002602001604051908101604052809291908181526020018280548015610bdb57602002820191906000526020600020905b815481526020019060010190808311610bc7575b5050505050905060005b8151811015610e0357610d4f3360076000858581518110610c2f577f4e487b7100000000000000000000000000000000000000000000000000000000600052603260045260246000fd5b602002602001015181526020019081526020016000206040518060800160405290816000820160009054906101000a900473ffffffffffffffffffffffffffffffffffffffff1673ffffffffffffffffffffffffffffffffffffffff1673ffffffffffffffffffffffffffffffffffffffff1681526020016000820160149054906101000a900460ff166002811115610cf1577f4e487b7100000000000000000000000000000000000000000000000000000000600052602160045260246000fd5b6002811115610d29577f4e487b7100000000000000000000000000000000000000000000000000000000600052602160045260246000fd5b81526020016001820154815260200160028201548152505061182f90919063ffffffff16565b60076000838381518110610d8c577f4e487b7100000000000000000000000000000000000000000000000000000000600052603260045260246000fd5b60200260200101518152602001908152602001600020600080820160006101000a81549073ffffffffffffffffffffffffffffffffffffffff02191690556000820160146101000a81549060ff02191690556001820160009055600282016000905550508080610dfb90613dbf565b915050610be5565b50600660008381526020019081526020016000206000610e239190612966565b610e2f33836001611baa565b817f083b7f60229c363199299fbd24e0c26e19121ff62b346c18f9b68a755c60267760405160405180910390a25050565b6000600160008473ffffffffffffffffffffffffffffffffffffffff1673ffffffffffffffffffffffffffffffffffffffff16815260200190815260200160002060008373ffffffffffffffffffffffffffffffffffffffff1673ffffffffffffffffffffffffffffffffffffffff16815260200190815260200160002060009054906101000a900460ff16905092915050565b600063f23a6e6160e01b90509695505050505050565b610f1261108d565b73ffffffffffffffffffffffffffffffffffffffff168573ffffffffffffffffffffffffffffffffffffffff161480610f585750610f5785610f5261108d565b610e60565b5b610f97576040517f08c379a0000000000000000000000000000000000000000000000000000000008152600401610f8e90613921565b60405180910390fd5b610fa48585858585611dc7565b5050505050565b60007fd9b67a26000000000000000000000000000000000000000000000000000000007bffffffffffffffffffffffffffffffffffffffffffffffffffffffff1916827bffffffffffffffffffffffffffffffffffffffffffffffffffffffff1916148061107657507f0e89341c000000000000000000000000000000000000000000000000000000007bffffffffffffffffffffffffffffffffffffffffffffffffffffffff1916827bffffffffffffffffffffffffffffffffffffffffffffffffffffffff1916145b80611086575061108582612049565b5b9050919050565b600033905090565b81518351146110d9576040517f08c379a00000000000000000000000000000000000000000000000000000000081526004016110d090613a41565b60405180910390fd5b600073ffffffffffffffffffffffffffffffffffffffff168473ffffffffffffffffffffffffffffffffffffffff161415611149576040517f08c379a000000000000000000000000000000000000000000000000000000000815260040161114090613961565b60405180910390fd5b600061115361108d565b90506111638187878787876120b3565b60005b84518110156113605760008582815181106111aa577f4e487b7100000000000000000000000000000000000000000000000000000000600052603260045260246000fd5b6020026020010151905060008583815181106111ef577f4e487b7100000000000000000000000000000000000000000000000000000000600052603260045260246000fd5b60200260200101519050600080600084815260200190815260200160002060008b73ffffffffffffffffffffffffffffffffffffffff1673ffffffffffffffffffffffffffffffffffffffff16815260200190815260200160002054905081811015611290576040517f08c379a0000000000000000000000000000000000000000000000000000000008152600401611287906139c1565b60405180910390fd5b81810360008085815260200190815260200160002060008c73ffffffffffffffffffffffffffffffffffffffff1673ffffffffffffffffffffffffffffffffffffffff168152602001908152602001600020819055508160008085815260200190815260200160002060008b73ffffffffffffffffffffffffffffffffffffffff1673ffffffffffffffffffffffffffffffffffffffff16815260200190815260200160002060008282546113459190613c2b565b925050819055505050508061135990613dbf565b9050611166565b508473ffffffffffffffffffffffffffffffffffffffff168673ffffffffffffffffffffffffffffffffffffffff168273ffffffffffffffffffffffffffffffffffffffff167f4a39dc06d4c0dbc64b70af90fd698a233a518aa5d07e595d983b8c0526c8f7fb87876040516113d79291906137d2565b60405180910390a46113ed8187878787876120bb565b505050505050565b8173ffffffffffffffffffffffffffffffffffffffff168373ffffffffffffffffffffffffffffffffffffffff161415611464576040517f08c379a000000000000000000000000000000000000000000000000000000000815260040161145b90613a01565b60405180910390fd5b80600160008573ffffffffffffffffffffffffffffffffffffffff1673ffffffffffffffffffffffffffffffffffffffff16815260200190815260200160002060008473ffffffffffffffffffffffffffffffffffffffff1673ffffffffffffffffffffffffffffffffffffffff16815260200190815260200160002060006101000a81548160ff0219169083151502179055508173ffffffffffffffffffffffffffffffffffffffff168373ffffffffffffffffffffffffffffffffffffffff167f17307eab39ab6107e8899845ad3d59bd9653f200f220920489ca2b5937696c31836040516115559190613809565b60405180910390a3505050565b600073ffffffffffffffffffffffffffffffffffffffff168473ffffffffffffffffffffffffffffffffffffffff1614156115d2576040517f08c379a00000000000000000000000000000000000000000000000000000000081526004016115c990613a61565b60405180910390fd5b60006115dc61108d565b90506115fd816000876115ee886122a2565b6115f7886122a2565b876120b3565b8260008086815260200190815260200160002060008773ffffffffffffffffffffffffffffffffffffffff1673ffffffffffffffffffffffffffffffffffffffff168152602001908152602001600020600082825461165c9190613c2b565b925050819055508473ffffffffffffffffffffffffffffffffffffffff16600073ffffffffffffffffffffffffffffffffffffffff168273ffffffffffffffffffffffffffffffffffffffff167fc3d58168c5ae7397731d063d5bbf3d657854427343f4c083240f7aacaa2d0f6287876040516116da929190613ab7565b60405180910390a46116f181600087878787612368565b5050505050565b6004600081548092919061170b90613dbf565b91905055508060076000600454815260200190815260200160002060008201518160000160006101000a81548173ffffffffffffffffffffffffffffffffffffffff021916908373ffffffffffffffffffffffffffffffffffffffff16021790555060208201518160000160146101000a81548160ff021916908360028111156117be577f4e487b7100000000000000000000000000000000000000000000000000000000600052602160045260246000fd5b0217905550604082015181600101556060820151816002015590505060066000838152602001908152602001600020600454908060018154018082558091505060019003906000526020600020016000909190919091505561182b33308361254f9092919063ffffffff16565b5050565b60006002811115611869577f4e487b7100000000000000000000000000000000000000000000000000000000600052602160045260246000fd5b826020015160028111156118a6577f4e487b7100000000000000000000000000000000000000000000000000000000600052602160045260246000fd5b141561194d576000826000015190508073ffffffffffffffffffffffffffffffffffffffff1663a9059cbb8385604001516040518363ffffffff1660e01b81526004016118f4929190613787565b602060405180830381600087803b15801561190e57600080fd5b505af1158015611922573d6000803e3d6000fd5b505050506040513d601f19601f820116820180604052508101906119469190613176565b5050611ba6565b60016002811115611987577f4e487b7100000000000000000000000000000000000000000000000000000000600052602160045260246000fd5b826020015160028111156119c4577f4e487b7100000000000000000000000000000000000000000000000000000000600052602160045260246000fd5b1415611a4c576000826000015190508073ffffffffffffffffffffffffffffffffffffffff166342842e0e308486606001516040518463ffffffff1660e01b8152600401611a149392919061369e565b600060405180830381600087803b158015611a2e57600080fd5b505af1158015611a42573d6000803e3d6000fd5b5050505050611ba5565b600280811115611a85577f4e487b7100000000000000000000000000000000000000000000000000000000600052602160045260246000fd5b82602001516002811115611ac2577f4e487b7100000000000000000000000000000000000000000000000000000000600052602160045260246000fd5b1415611b6957600082600001519050600083604001511415611aea5760018360400181815250505b8073ffffffffffffffffffffffffffffffffffffffff1663f242432a3084866060015187604001516040518563ffffffff1660e01b8152600401611b31949392919061372f565b600060405180830381600087803b158015611b4b57600080fd5b505af1158015611b5f573d6000803e3d6000fd5b5050505050611ba4565b6040517f08c379a0000000000000000000000000000000000000000000000000000000008152600401611b9b906139e1565b60405180910390fd5b5b5b5050565b600073ffffffffffffffffffffffffffffffffffffffff168373ffffffffffffffffffffffffffffffffffffffff161415611c1a576040517f08c379a0000000000000000000000000000000000000000000000000000000008152600401611c11906139a1565b60405180910390fd5b6000611c2461108d565b9050611c5481856000611c36876122a2565b611c3f876122a2565b604051806020016040528060008152506120b3565b600080600085815260200190815260200160002060008673ffffffffffffffffffffffffffffffffffffffff1673ffffffffffffffffffffffffffffffffffffffff16815260200190815260200160002054905082811015611ceb576040517f08c379a0000000000000000000000000000000000000000000000000000000008152600401611ce290613901565b60405180910390fd5b82810360008086815260200190815260200160002060008773ffffffffffffffffffffffffffffffffffffffff1673ffffffffffffffffffffffffffffffffffffffff16815260200190815260200160002081905550600073ffffffffffffffffffffffffffffffffffffffff168573ffffffffffffffffffffffffffffffffffffffff168373ffffffffffffffffffffffffffffffffffffffff167fc3d58168c5ae7397731d063d5bbf3d657854427343f4c083240f7aacaa2d0f628787604051611db8929190613ab7565b60405180910390a45050505050565b600073ffffffffffffffffffffffffffffffffffffffff168473ffffffffffffffffffffffffffffffffffffffff161415611e37576040517f08c379a0000000000000000000000000000000000000000000000000000000008152600401611e2e90613961565b60405180910390fd5b6000611e4161108d565b9050611e61818787611e52886122a2565b611e5b886122a2565b876120b3565b600080600086815260200190815260200160002060008873ffffffffffffffffffffffffffffffffffffffff1673ffffffffffffffffffffffffffffffffffffffff16815260200190815260200160002054905083811015611ef8576040517f08c379a0000000000000000000000000000000000000000000000000000000008152600401611eef906139c1565b60405180910390fd5b83810360008087815260200190815260200160002060008973ffffffffffffffffffffffffffffffffffffffff1673ffffffffffffffffffffffffffffffffffffffff168152602001908152602001600020819055508360008087815260200190815260200160002060008873ffffffffffffffffffffffffffffffffffffffff1673ffffffffffffffffffffffffffffffffffffffff1681526020019081526020016000206000828254611fad9190613c2b565b925050819055508573ffffffffffffffffffffffffffffffffffffffff168773ffffffffffffffffffffffffffffffffffffffff168373ffffffffffffffffffffffffffffffffffffffff167fc3d58168c5ae7397731d063d5bbf3d657854427343f4c083240f7aacaa2d0f62888860405161202a929190613ab7565b60405180910390a4612040828888888888612368565b50505050505050565b60007f01ffc9a7000000000000000000000000000000000000000000000000000000007bffffffffffffffffffffffffffffffffffffffffffffffffffffffff1916827bffffffffffffffffffffffffffffffffffffffffffffffffffffffff1916149050919050565b505050505050565b6120da8473ffffffffffffffffffffffffffffffffffffffff166128cd565b1561229a578373ffffffffffffffffffffffffffffffffffffffff1663bc197c8187878686866040518663ffffffff1660e01b8152600401612120959493929190613636565b602060405180830381600087803b15801561213a57600080fd5b505af192505050801561216b57506040513d601f19601f8201168201806040525081019061216891906131c8565b60015b61221157612177613ec4565b806308c379a014156121d4575061218c6143fa565b8061219757506121d6565b806040517f08c379a00000000000000000000000000000000000000000000000000000000081526004016121cb919061383f565b60405180910390fd5b505b6040517f08c379a000000000000000000000000000000000000000000000000000000000815260040161220890613861565b60405180910390fd5b63bc197c8160e01b7bffffffffffffffffffffffffffffffffffffffffffffffffffffffff1916817bffffffffffffffffffffffffffffffffffffffffffffffffffffffff191614612298576040517f08c379a000000000000000000000000000000000000000000000000000000000815260040161228f90613881565b60405180910390fd5b505b505050505050565b60606000600167ffffffffffffffff8111156122e7577f4e487b7100000000000000000000000000000000000000000000000000000000600052604160045260246000fd5b6040519080825280602002602001820160405280156123155781602001602082028036833780820191505090505b5090508281600081518110612353577f4e487b7100000000000000000000000000000000000000000000000000000000600052603260045260246000fd5b60200260200101818152505080915050919050565b6123878473ffffffffffffffffffffffffffffffffffffffff166128cd565b15612547578373ffffffffffffffffffffffffffffffffffffffff1663f23a6e6187878686866040518663ffffffff1660e01b81526004016123cd9594939291906136d5565b602060405180830381600087803b1580156123e757600080fd5b505af192505050801561241857506040513d601f19601f8201168201806040525081019061241591906131c8565b60015b6124be57612424613ec4565b806308c379a0141561248157506124396143fa565b806124445750612483565b806040517f08c379a0000000000000000000000000000000000000000000000000000000008152600401612478919061383f565b60405180910390fd5b505b6040517f08c379a00000000000000000000000000000000000000000000000000000000081526004016124b590613861565b60405180910390fd5b63f23a6e6160e01b7bffffffffffffffffffffffffffffffffffffffffffffffffffffffff1916817bffffffffffffffffffffffffffffffffffffffffffffffffffffffff191614612545576040517f08c379a000000000000000000000000000000000000000000000000000000000815260040161253c90613881565b60405180910390fd5b505b505050505050565b60006002811115612589577f4e487b7100000000000000000000000000000000000000000000000000000000600052602160045260246000fd5b836020015160028111156125c6577f4e487b7100000000000000000000000000000000000000000000000000000000600052602160045260246000fd5b141561266f576000836000015190508073ffffffffffffffffffffffffffffffffffffffff166323b872dd848487604001516040518463ffffffff1660e01b81526004016126169392919061369e565b602060405180830381600087803b15801561263057600080fd5b505af1158015612644573d6000803e3d6000fd5b505050506040513d601f19601f820116820180604052508101906126689190613176565b50506128c8565b600160028111156126a9577f4e487b7100000000000000000000000000000000000000000000000000000000600052602160045260246000fd5b836020015160028111156126e6577f4e487b7100000000000000000000000000000000000000000000000000000000600052602160045260246000fd5b141561276e576000836000015190508073ffffffffffffffffffffffffffffffffffffffff166342842e0e848487606001516040518463ffffffff1660e01b81526004016127369392919061369e565b600060405180830381600087803b15801561275057600080fd5b505af1158015612764573d6000803e3d6000fd5b50505050506128c7565b6002808111156127a7577f4e487b7100000000000000000000000000000000000000000000000000000000600052602160045260246000fd5b836020015160028111156127e4577f4e487b7100000000000000000000000000000000000000000000000000000000600052602160045260246000fd5b141561288b5760008360000151905060008460400151141561280c5760018460400181815250505b8073ffffffffffffffffffffffffffffffffffffffff1663f242432a8484876060015188604001516040518563ffffffff1660e01b8152600401612853949392919061372f565b600060405180830381600087803b15801561286d57600080fd5b505af1158015612881573d6000803e3d6000fd5b50505050506128c6565b6040517f08c379a00000000000000000000000000000000000000000000000000000000081526004016128bd906139e1565b60405180910390fd5b5b5b505050565b6000808273ffffffffffffffffffffffffffffffffffffffff163b119050919050565b6040518060800160405280600073ffffffffffffffffffffffffffffffffffffffff16815260200160006002811115612952577f4e487b7100000000000000000000000000000000000000000000000000000000600052602160045260246000fd5b815260200160008152602001600081525090565b50805460008255906000526020600020908101906129849190612987565b50565b5b808211156129a0576000816000905550600101612988565b5090565b60006129b76129b284613b05565b613ae0565b905080838252602082019050828560208602820111156129d657600080fd5b60005b85811015612a0657816129ec8882612b26565b8452602084019350602083019250506001810190506129d9565b5050509392505050565b6000612a23612a1e84613b31565b613ae0565b90508083825260208201905082856080860282011115612a4257600080fd5b60005b85811015612a725781612a588882612ce0565b845260208401935060808301925050600181019050612a45565b5050509392505050565b6000612a8f612a8a84613b5d565b613ae0565b90508083825260208201905082856020860282011115612aae57600080fd5b60005b85811015612ade5781612ac48882612d54565b845260208401935060208301925050600181019050612ab1565b5050509392505050565b6000612afb612af684613b89565b613ae0565b905082815260208101848484011115612b1357600080fd5b612b1e848285613d1a565b509392505050565b600081359050612b35816144a4565b92915050565b600082601f830112612b4c57600080fd5b8135612b5c8482602086016129a4565b91505092915050565b600082601f830112612b7657600080fd5b8135612b86848260208601612a10565b91505092915050565b60008083601f840112612ba157600080fd5b8235905067ffffffffffffffff811115612bba57600080fd5b602083019150836020820283011115612bd257600080fd5b9250929050565b600082601f830112612bea57600080fd5b8135612bfa848260208601612a7c565b91505092915050565b600081359050612c12816144bb565b92915050565b600081519050612c27816144bb565b92915050565b600081359050612c3c816144d2565b92915050565b600081519050612c51816144d2565b92915050565b60008083601f840112612c6957600080fd5b8235905067ffffffffffffffff811115612c8257600080fd5b602083019150836001820283011115612c9a57600080fd5b9250929050565b600082601f830112612cb257600080fd5b8135612cc2848260208601612ae8565b91505092915050565b600081359050612cda816144e9565b92915050565b600060808284031215612cf257600080fd5b612cfc6080613ae0565b90506000612d0c84828501612b26565b6000830152506020612d2084828501612ccb565b6020830152506040612d3484828501612d54565b6040830152506060612d4884828501612d54565b60608301525092915050565b600081359050612d63816144f9565b92915050565b60008060408385031215612d7c57600080fd5b6000612d8a85828601612b26565b9250506020612d9b85828601612b26565b9150509250929050565b60008060008060008060008060a0898b031215612dc157600080fd5b6000612dcf8b828c01612b26565b9850506020612de08b828c01612b26565b975050604089013567ffffffffffffffff811115612dfd57600080fd5b612e098b828c01612b8f565b9650965050606089013567ffffffffffffffff811115612e2857600080fd5b612e348b828c01612b8f565b9450945050608089013567ffffffffffffffff811115612e5357600080fd5b612e5f8b828c01612c57565b92509250509295985092959890939650565b600080600080600060a08688031215612e8957600080fd5b6000612e9788828901612b26565b9550506020612ea888828901612b26565b945050604086013567ffffffffffffffff811115612ec557600080fd5b612ed188828901612bd9565b935050606086013567ffffffffffffffff811115612eee57600080fd5b612efa88828901612bd9565b925050608086013567ffffffffffffffff811115612f1757600080fd5b612f2388828901612ca1565b9150509295509295909350565b60008060008060008060a08789031215612f4957600080fd5b6000612f5789828a01612b26565b9650506020612f6889828a01612b26565b9550506040612f7989828a01612d54565b9450506060612f8a89828a01612d54565b935050608087013567ffffffffffffffff811115612fa757600080fd5b612fb389828a01612c57565b92509250509295509295509295565b600080600080600060a08688031215612fda57600080fd5b6000612fe888828901612b26565b9550506020612ff988828901612b26565b945050604061300a88828901612d54565b935050606061301b88828901612d54565b925050608086013567ffffffffffffffff81111561303857600080fd5b61304488828901612ca1565b9150509295509295909350565b6000806040838503121561306457600080fd5b600061307285828601612b26565b925050602061308385828601612c03565b9150509250929050565b600080604083850312156130a057600080fd5b60006130ae85828601612b26565b92505060206130bf85828601612d54565b9150509250929050565b600080604083850312156130dc57600080fd5b600083013567ffffffffffffffff8111156130f657600080fd5b61310285828601612b3b565b925050602083013567ffffffffffffffff81111561311f57600080fd5b61312b85828601612bd9565b9150509250929050565b60006020828403121561314757600080fd5b600082013567ffffffffffffffff81111561316157600080fd5b61316d84828501612b65565b91505092915050565b60006020828403121561318857600080fd5b600061319684828501612c18565b91505092915050565b6000602082840312156131b157600080fd5b60006131bf84828501612c2d565b91505092915050565b6000602082840312156131da57600080fd5b60006131e884828501612c42565b91505092915050565b60006020828403121561320357600080fd5b600061321184828501612d54565b91505092915050565b60006132268383613618565b60208301905092915050565b61323b81613c81565b82525050565b61324a81613c81565b82525050565b600061325b82613bca565b6132658185613bf8565b935061327083613bba565b8060005b838110156132a1578151613288888261321a565b975061329383613beb565b925050600181019050613274565b5085935050505092915050565b6132b781613c93565b82525050565b6132c681613c9f565b82525050565b60006132d782613bd5565b6132e18185613c09565b93506132f1818560208601613d29565b6132fa81613ee6565b840191505092915050565b61330e81613d08565b82525050565b600061331f82613be0565b6133298185613c1a565b9350613339818560208601613d29565b61334281613ee6565b840191505092915050565b600061335a603483613c1a565b915061336582613f04565b604082019050919050565b600061337d602883613c1a565b915061338882613f53565b604082019050919050565b60006133a0602783613c1a565b91506133ab82613fa2565b604082019050919050565b60006133c3602b83613c1a565b91506133ce82613ff1565b604082019050919050565b60006133e6602183613c1a565b91506133f182614040565b604082019050919050565b6000613409602483613c1a565b91506134148261408f565b604082019050919050565b600061342c602983613c1a565b9150613437826140de565b604082019050919050565b600061344f601a83613c1a565b915061345a8261412d565b602082019050919050565b6000613472602583613c1a565b915061347d82614156565b604082019050919050565b6000613495603283613c1a565b91506134a0826141a5565b604082019050919050565b60006134b8602383613c1a565b91506134c3826141f4565b604082019050919050565b60006134db602a83613c1a565b91506134e682614243565b604082019050919050565b60006134fe602083613c1a565b915061350982614292565b602082019050919050565b6000613521600083613c09565b915061352c826142bb565b600082019050919050565b6000613544602983613c1a565b915061354f826142be565b604082019050919050565b6000613567602983613c1a565b91506135728261430d565b604082019050919050565b600061358a602883613c1a565b91506135958261435c565b604082019050919050565b60006135ad602183613c1a565b91506135b8826143ab565b604082019050919050565b6080820160008201516135d96000850182613232565b5060208201516135ec6020850182613305565b5060408201516135ff6040850182613618565b5060608201516136126060850182613618565b50505050565b61362181613cfe565b82525050565b61363081613cfe565b82525050565b600060a08201905061364b6000830188613241565b6136586020830187613241565b818103604083015261366a8186613250565b9050818103606083015261367e8185613250565b9050818103608083015261369281846132cc565b90509695505050505050565b60006060820190506136b36000830186613241565b6136c06020830185613241565b6136cd6040830184613627565b949350505050565b600060a0820190506136ea6000830188613241565b6136f76020830187613241565b6137046040830186613627565b6137116060830185613627565b818103608083015261372381846132cc565b90509695505050505050565b600060a0820190506137446000830187613241565b6137516020830186613241565b61375e6040830185613627565b61376b6060830184613627565b818103608083015261377c81613514565b905095945050505050565b600060408201905061379c6000830185613241565b6137a96020830184613627565b9392505050565b600060208201905081810360008301526137ca8184613250565b905092915050565b600060408201905081810360008301526137ec8185613250565b905081810360208301526138008184613250565b90509392505050565b600060208201905061381e60008301846132ae565b92915050565b600060208201905061383960008301846132bd565b92915050565b600060208201905081810360008301526138598184613314565b905092915050565b6000602082019050818103600083015261387a8161334d565b9050919050565b6000602082019050818103600083015261389a81613370565b9050919050565b600060208201905081810360008301526138ba81613393565b9050919050565b600060208201905081810360008301526138da816133b6565b9050919050565b600060208201905081810360008301526138fa816133d9565b9050919050565b6000602082019050818103600083015261391a816133fc565b9050919050565b6000602082019050818103600083015261393a8161341f565b9050919050565b6000602082019050818103600083015261395a81613442565b9050919050565b6000602082019050818103600083015261397a81613465565b9050919050565b6000602082019050818103600083015261399a81613488565b9050919050565b600060208201905081810360008301526139ba816134ab565b9050919050565b600060208201905081810360008301526139da816134ce565b9050919050565b600060208201905081810360008301526139fa816134f1565b9050919050565b60006020820190508181036000830152613a1a81613537565b9050919050565b60006020820190508181036000830152613a3a8161355a565b9050919050565b60006020820190508181036000830152613a5a8161357d565b9050919050565b60006020820190508181036000830152613a7a816135a0565b9050919050565b6000608082019050613a9660008301846135c3565b92915050565b6000602082019050613ab16000830184613627565b92915050565b6000604082019050613acc6000830185613627565b613ad96020830184613627565b9392505050565b6000613aea613afb565b9050613af68282613d8e565b919050565b6000604051905090565b600067ffffffffffffffff821115613b2057613b1f613e95565b5b602082029050602081019050919050565b600067ffffffffffffffff821115613b4c57613b4b613e95565b5b602082029050602081019050919050565b600067ffffffffffffffff821115613b7857613b77613e95565b5b602082029050602081019050919050565b600067ffffffffffffffff821115613ba457613ba3613e95565b5b613bad82613ee6565b9050602081019050919050565b6000819050602082019050919050565b600081519050919050565b600081519050919050565b600081519050919050565b6000602082019050919050565b600082825260208201905092915050565b600082825260208201905092915050565b600082825260208201905092915050565b6000613c3682613cfe565b9150613c4183613cfe565b9250827fffffffffffffffffffffffffffffffffffffffffffffffffffffffffffffffff03821115613c7657613c75613e08565b5b828201905092915050565b6000613c8c82613cde565b9050919050565b60008115159050919050565b60007fffffffff0000000000000000000000000000000000000000000000000000000082169050919050565b6000819050613cd982614490565b919050565b600073ffffffffffffffffffffffffffffffffffffffff82169050919050565b6000819050919050565b6000613d1382613ccb565b9050919050565b82818337600083830152505050565b60005b83811015613d47578082015181840152602081019050613d2c565b83811115613d56576000848401525b50505050565b60006002820490506001821680613d7457607f821691505b60208210811415613d8857613d87613e66565b5b50919050565b613d9782613ee6565b810181811067ffffffffffffffff82111715613db657613db5613e95565b5b80604052505050565b6000613dca82613cfe565b91507fffffffffffffffffffffffffffffffffffffffffffffffffffffffffffffffff821415613dfd57613dfc613e08565b5b600182019050919050565b7f4e487b7100000000000000000000000000000000000000000000000000000000600052601160045260246000fd5b7f4e487b7100000000000000000000000000000000000000000000000000000000600052602160045260246000fd5b7f4e487b7100000000000000000000000000000000000000000000000000000000600052602260045260246000fd5b7f4e487b7100000000000000000000000000000000000000000000000000000000600052604160045260246000fd5b600060033d1115613ee35760046000803e613ee0600051613ef7565b90505b90565b6000601f19601f8301169050919050565b60008160e01c9050919050565b7f455243313135353a207472616e7366657220746f206e6f6e204552433131353560008201527f526563656976657220696d706c656d656e746572000000000000000000000000602082015250565b7f455243313135353a204552433131353552656365697665722072656a6563746560008201527f6420746f6b656e73000000000000000000000000000000000000000000000000602082015250565b7f4e756d626572206f662061737365747320657863656564206d61782062756e6460008201527f6c652073697a6500000000000000000000000000000000000000000000000000602082015250565b7f455243313135353a2062616c616e636520717565727920666f7220746865207a60008201527f65726f2061646472657373000000000000000000000000000000000000000000602082015250565b7f4e65656420746f2062756e646c65206174206c65617374206f6e65206173736560008201527f7400000000000000000000000000000000000000000000000000000000000000602082015250565b7f455243313135353a206275726e20616d6f756e7420657863656564732062616c60008201527f616e636500000000000000000000000000000000000000000000000000000000602082015250565b7f455243313135353a2063616c6c6572206973206e6f74206f776e6572206e6f7260008201527f20617070726f7665640000000000000000000000000000000000000000000000602082015250565b7f53656e646572206973206e6f742062756e646c65206f776e6572000000000000600082015250565b7f455243313135353a207472616e7366657220746f20746865207a65726f20616460008201527f6472657373000000000000000000000000000000000000000000000000000000602082015250565b7f455243313135353a207472616e736665722063616c6c6572206973206e6f742060008201527f6f776e6572206e6f7220617070726f7665640000000000000000000000000000602082015250565b7f455243313135353a206275726e2066726f6d20746865207a65726f206164647260008201527f6573730000000000000000000000000000000000000000000000000000000000602082015250565b7f455243313135353a20696e73756666696369656e742062616c616e636520666f60008201527f72207472616e7366657200000000000000000000000000000000000000000000602082015250565b7f4d756c7469546f6b656e3a20556e737570706f727465642063617465676f7279600082015250565b50565b7f455243313135353a2073657474696e6720617070726f76616c2073746174757360008201527f20666f722073656c660000000000000000000000000000000000000000000000602082015250565b7f455243313135353a206163636f756e747320616e6420696473206c656e67746860008201527f206d69736d617463680000000000000000000000000000000000000000000000602082015250565b7f455243313135353a2069647320616e6420616d6f756e7473206c656e6774682060008201527f6d69736d61746368000000000000000000000000000000000000000000000000602082015250565b7f455243313135353a206d696e7420746f20746865207a65726f2061646472657360008201527f7300000000000000000000000000000000000000000000000000000000000000602082015250565b600060443d101561440a5761448d565b614412613afb565b60043d036004823e80513d602482011167ffffffffffffffff8211171561443a57505061448d565b808201805167ffffffffffffffff811115614458575050505061448d565b80602083010160043d03850181111561447557505050505061448d565b61448482602001850186613d8e565b82955050505050505b90565b600381106144a1576144a0613e37565b5b50565b6144ad81613c81565b81146144b857600080fd5b50565b6144c481613c93565b81146144cf57600080fd5b50565b6144db81613c9f565b81146144e657600080fd5b50565b600381106144f657600080fd5b50565b61450281613cfe565b811461450d57600080fd5b5056fea2646970667358221220065f0c52130fab85b3136645de19d784bf68ced9a3e6ffc9f151002cf625fd5c64736f6c63430008040033",
  "linkReferences": {},
  "deployedLinkReferences": {}
}